{
  "_format": "hh-sol-artifact-1",
  "contractName": "CineChainNFT",
  "sourceName": "src/CineChainNFT.sol",
  "abi": [
    {
      "inputs": [
        {
          "internalType": "string",
          "name": "name",
          "type": "string"
        },
        {
          "internalType": "string",
          "name": "symbol",
          "type": "string"
        },
        {
          "internalType": "address",
          "name": "_campaignFundingContract",
          "type": "address"
        },
        {
          "internalType": "address",
          "name": "_platformWallet",
          "type": "address"
        }
      ],
      "stateMutability": "nonpayable",
      "type": "constructor"
    },
    {
      "anonymous": false,
      "inputs": [
        {
          "indexed": true,
          "internalType": "address",
          "name": "owner",
          "type": "address"
        },
        {
          "indexed": true,
          "internalType": "address",
          "name": "approved",
          "type": "address"
        },
        {
          "indexed": true,
          "internalType": "uint256",
          "name": "tokenId",
          "type": "uint256"
        }
      ],
      "name": "Approval",
      "type": "event"
    },
    {
      "anonymous": false,
      "inputs": [
        {
          "indexed": true,
          "internalType": "address",
          "name": "owner",
          "type": "address"
        },
        {
          "indexed": true,
          "internalType": "address",
          "name": "operator",
          "type": "address"
        },
        {
          "indexed": false,
          "internalType": "bool",
          "name": "approved",
          "type": "bool"
        }
      ],
      "name": "ApprovalForAll",
      "type": "event"
    },
    {
      "anonymous": false,
      "inputs": [
        {
          "indexed": false,
          "internalType": "uint256",
          "name": "_fromTokenId",
          "type": "uint256"
        },
        {
          "indexed": false,
          "internalType": "uint256",
          "name": "_toTokenId",
          "type": "uint256"
        }
      ],
      "name": "BatchMetadataUpdate",
      "type": "event"
    },
    {
      "anonymous": false,
      "inputs": [
        {
          "indexed": true,
          "internalType": "address",
          "name": "to",
          "type": "address"
        },
        {
          "indexed": false,
          "internalType": "uint256[]",
          "name": "tokenIds",
          "type": "uint256[]"
        },
        {
          "indexed": false,
          "internalType": "uint256",
          "name": "campaignId",
          "type": "uint256"
        }
      ],
      "name": "BatchMinted",
      "type": "event"
    },
    {
      "anonymous": false,
      "inputs": [
        {
          "indexed": false,
          "internalType": "uint256",
          "name": "_tokenId",
          "type": "uint256"
        }
      ],
      "name": "MetadataUpdate",
      "type": "event"
    },
    {
      "anonymous": false,
      "inputs": [
        {
          "indexed": true,
          "internalType": "uint256",
          "name": "tokenId",
          "type": "uint256"
        },
        {
          "indexed": true,
          "internalType": "uint256",
          "name": "campaignId",
          "type": "uint256"
        },
        {
          "indexed": true,
          "internalType": "address",
          "name": "creator",
          "type": "address"
        },
        {
          "indexed": false,
          "internalType": "address",
          "name": "owner",
          "type": "address"
        },
        {
          "indexed": false,
          "internalType": "uint256",
          "name": "contributionAmount",
          "type": "uint256"
        },
        {
          "indexed": false,
          "internalType": "string",
          "name": "metadataURI",
          "type": "string"
        }
      ],
      "name": "NFTCreated",
      "type": "event"
    },
    {
      "anonymous": false,
      "inputs": [
        {
          "indexed": true,
          "internalType": "address",
          "name": "previousOwner",
          "type": "address"
        },
        {
          "indexed": true,
          "internalType": "address",
          "name": "newOwner",
          "type": "address"
        }
      ],
      "name": "OwnershipTransferred",
      "type": "event"
    },
    {
      "anonymous": false,
      "inputs": [
        {
          "indexed": true,
          "internalType": "uint256",
          "name": "tokenId",
          "type": "uint256"
        },
        {
          "indexed": false,
          "internalType": "uint256",
          "name": "newRoyaltyPercentage",
          "type": "uint256"
        }
      ],
      "name": "RoyaltyUpdated",
      "type": "event"
    },
    {
      "anonymous": false,
      "inputs": [
        {
          "indexed": true,
          "internalType": "address",
          "name": "from",
          "type": "address"
        },
        {
          "indexed": true,
          "internalType": "address",
          "name": "to",
          "type": "address"
        },
        {
          "indexed": true,
          "internalType": "uint256",
          "name": "tokenId",
          "type": "uint256"
        }
      ],
      "name": "Transfer",
      "type": "event"
    },
    {
      "anonymous": false,
      "inputs": [
        {
          "indexed": true,
          "internalType": "uint256",
          "name": "tokenId",
          "type": "uint256"
        },
        {
          "indexed": false,
          "internalType": "bool",
          "name": "isTransferable",
          "type": "bool"
        }
      ],
      "name": "TransferabilityUpdated",
      "type": "event"
    },
    {
      "inputs": [
        {
          "internalType": "address",
          "name": "to",
          "type": "address"
        },
        {
          "internalType": "uint256",
          "name": "tokenId",
          "type": "uint256"
        }
      ],
      "name": "approve",
      "outputs": [],
      "stateMutability": "nonpayable",
      "type": "function"
    },
    {
      "inputs": [
        {
          "internalType": "address",
          "name": "owner",
          "type": "address"
        }
      ],
      "name": "balanceOf",
      "outputs": [
        {
          "internalType": "uint256",
          "name": "",
          "type": "uint256"
        }
      ],
      "stateMutability": "view",
      "type": "function"
    },
    {
      "inputs": [
        {
          "internalType": "address",
          "name": "to",
          "type": "address"
        },
        {
          "internalType": "uint256",
          "name": "campaignId",
          "type": "uint256"
        },
        {
          "internalType": "uint256[]",
          "name": "contributionAmounts",
          "type": "uint256[]"
        },
        {
          "internalType": "string[]",
          "name": "metadataURIs",
          "type": "string[]"
        },
        {
          "internalType": "uint256[]",
          "name": "royaltyPercentages",
          "type": "uint256[]"
        }
      ],
      "name": "batchMintNFTs",
      "outputs": [
        {
          "internalType": "uint256[]",
          "name": "",
          "type": "uint256[]"
        }
      ],
      "stateMutability": "nonpayable",
      "type": "function"
    },
    {
      "inputs": [],
      "name": "campaignFundingContract",
      "outputs": [
        {
          "internalType": "address",
          "name": "",
          "type": "address"
        }
      ],
      "stateMutability": "view",
      "type": "function"
    },
    {
      "inputs": [
        {
          "internalType": "uint256",
          "name": "",
          "type": "uint256"
        }
      ],
      "name": "campaignNFTCount",
      "outputs": [
        {
          "internalType": "uint256",
          "name": "",
          "type": "uint256"
        }
      ],
      "stateMutability": "view",
      "type": "function"
    },
    {
      "inputs": [],
      "name": "defaultRoyaltyPercentage",
      "outputs": [
        {
          "internalType": "uint256",
          "name": "",
          "type": "uint256"
        }
      ],
      "stateMutability": "view",
      "type": "function"
    },
    {
      "inputs": [
        {
          "internalType": "uint256",
          "name": "tokenId",
          "type": "uint256"
        }
      ],
      "name": "getApproved",
      "outputs": [
        {
          "internalType": "address",
          "name": "",
          "type": "address"
        }
      ],
      "stateMutability": "view",
      "type": "function"
    },
    {
      "inputs": [
        {
          "internalType": "uint256",
          "name": "campaignId",
          "type": "uint256"
        }
      ],
      "name": "getCampaignNFTCount",
      "outputs": [
        {
          "internalType": "uint256",
          "name": "",
          "type": "uint256"
        }
      ],
      "stateMutability": "view",
      "type": "function"
    },
    {
      "inputs": [
        {
          "internalType": "uint256",
          "name": "campaignId",
          "type": "uint256"
        }
      ],
      "name": "getCampaignNFTs",
      "outputs": [
        {
          "internalType": "uint256[]",
          "name": "",
          "type": "uint256[]"
        }
      ],
      "stateMutability": "view",
      "type": "function"
    },
    {
      "inputs": [
        {
          "internalType": "uint256",
          "name": "tokenId",
          "type": "uint256"
        }
      ],
      "name": "getNFTData",
      "outputs": [
        {
          "components": [
            {
              "internalType": "uint256",
              "name": "tokenId",
              "type": "uint256"
            },
            {
              "internalType": "uint256",
              "name": "campaignId",
              "type": "uint256"
            },
            {
              "internalType": "address",
              "name": "creator",
              "type": "address"
            },
            {
              "internalType": "address",
              "name": "owner",
              "type": "address"
            },
            {
              "internalType": "uint256",
              "name": "contributionAmount",
              "type": "uint256"
            },
            {
              "internalType": "uint256",
              "name": "royaltyPercentage",
              "type": "uint256"
            },
            {
              "internalType": "string",
              "name": "metadataURI",
              "type": "string"
            },
            {
              "internalType": "uint256",
              "name": "mintedAt",
              "type": "uint256"
            },
            {
              "internalType": "bool",
              "name": "isTransferable",
              "type": "bool"
            }
          ],
          "internalType": "struct CineChainNFT.NFTData",
          "name": "",
          "type": "tuple"
        }
      ],
      "stateMutability": "view",
      "type": "function"
    },
    {
      "inputs": [
        {
          "internalType": "address",
          "name": "user",
          "type": "address"
        }
      ],
      "name": "getUserNFTs",
      "outputs": [
        {
          "internalType": "uint256[]",
          "name": "",
          "type": "uint256[]"
        }
      ],
      "stateMutability": "view",
      "type": "function"
    },
    {
      "inputs": [
        {
          "internalType": "address",
          "name": "owner",
          "type": "address"
        },
        {
          "internalType": "address",
          "name": "operator",
          "type": "address"
        }
      ],
      "name": "isApprovedForAll",
      "outputs": [
        {
          "internalType": "bool",
          "name": "",
          "type": "bool"
        }
      ],
      "stateMutability": "view",
      "type": "function"
    },
    {
      "inputs": [],
      "name": "maxSupply",
      "outputs": [
        {
          "internalType": "uint256",
          "name": "",
          "type": "uint256"
        }
      ],
      "stateMutability": "view",
      "type": "function"
    },
    {
      "inputs": [
        {
          "internalType": "address",
          "name": "to",
          "type": "address"
        },
        {
          "internalType": "uint256",
          "name": "campaignId",
          "type": "uint256"
        },
        {
          "internalType": "uint256",
          "name": "contributionAmount",
          "type": "uint256"
        },
        {
          "internalType": "string",
          "name": "metadataURI",
          "type": "string"
        },
        {
          "internalType": "uint256",
          "name": "royaltyPercentage",
          "type": "uint256"
        }
      ],
      "name": "mintNFT",
      "outputs": [
        {
          "internalType": "uint256",
          "name": "",
          "type": "uint256"
        }
      ],
      "stateMutability": "nonpayable",
      "type": "function"
    },
    {
      "inputs": [],
      "name": "name",
      "outputs": [
        {
          "internalType": "string",
          "name": "",
          "type": "string"
        }
      ],
      "stateMutability": "view",
      "type": "function"
    },
    {
      "inputs": [
        {
          "internalType": "uint256",
          "name": "",
          "type": "uint256"
        }
      ],
      "name": "nftData",
      "outputs": [
        {
          "internalType": "uint256",
          "name": "tokenId",
          "type": "uint256"
        },
        {
          "internalType": "uint256",
          "name": "campaignId",
          "type": "uint256"
        },
        {
          "internalType": "address",
          "name": "creator",
          "type": "address"
        },
        {
          "internalType": "address",
          "name": "owner",
          "type": "address"
        },
        {
          "internalType": "uint256",
          "name": "contributionAmount",
          "type": "uint256"
        },
        {
          "internalType": "uint256",
          "name": "royaltyPercentage",
          "type": "uint256"
        },
        {
          "internalType": "string",
          "name": "metadataURI",
          "type": "string"
        },
        {
          "internalType": "uint256",
          "name": "mintedAt",
          "type": "uint256"
        },
        {
          "internalType": "bool",
          "name": "isTransferable",
          "type": "bool"
        }
      ],
      "stateMutability": "view",
      "type": "function"
    },
    {
      "inputs": [],
      "name": "owner",
      "outputs": [
        {
          "internalType": "address",
          "name": "",
          "type": "address"
        }
      ],
      "stateMutability": "view",
      "type": "function"
    },
    {
      "inputs": [
        {
          "internalType": "uint256",
          "name": "tokenId",
          "type": "uint256"
        }
      ],
      "name": "ownerOf",
      "outputs": [
        {
          "internalType": "address",
          "name": "",
          "type": "address"
        }
      ],
      "stateMutability": "view",
      "type": "function"
    },
    {
      "inputs": [],
      "name": "platformWallet",
      "outputs": [
        {
          "internalType": "address",
          "name": "",
          "type": "address"
        }
      ],
      "stateMutability": "view",
      "type": "function"
    },
    {
      "inputs": [],
      "name": "renounceOwnership",
      "outputs": [],
      "stateMutability": "nonpayable",
      "type": "function"
    },
    {
      "inputs": [
        {
          "internalType": "uint256",
          "name": "tokenId",
          "type": "uint256"
        },
        {
          "internalType": "uint256",
          "name": "salePrice",
          "type": "uint256"
        }
      ],
      "name": "royaltyInfo",
      "outputs": [
        {
          "internalType": "address",
          "name": "",
          "type": "address"
        },
        {
          "internalType": "uint256",
          "name": "",
          "type": "uint256"
        }
      ],
      "stateMutability": "view",
      "type": "function"
    },
    {
      "inputs": [
        {
          "internalType": "uint256",
          "name": "",
          "type": "uint256"
        }
      ],
      "name": "royaltyRecipients",
      "outputs": [
        {
          "internalType": "address",
          "name": "",
          "type": "address"
        }
      ],
      "stateMutability": "view",
      "type": "function"
    },
    {
      "inputs": [
        {
          "internalType": "address",
          "name": "from",
          "type": "address"
        },
        {
          "internalType": "address",
          "name": "to",
          "type": "address"
        },
        {
          "internalType": "uint256",
          "name": "tokenId",
          "type": "uint256"
        }
      ],
      "name": "safeTransferFrom",
      "outputs": [],
      "stateMutability": "nonpayable",
      "type": "function"
    },
    {
      "inputs": [
        {
          "internalType": "address",
          "name": "from",
          "type": "address"
        },
        {
          "internalType": "address",
          "name": "to",
          "type": "address"
        },
        {
          "internalType": "uint256",
          "name": "tokenId",
          "type": "uint256"
        },
        {
          "internalType": "bytes",
          "name": "data",
          "type": "bytes"
        }
      ],
      "name": "safeTransferFrom",
      "outputs": [],
      "stateMutability": "nonpayable",
      "type": "function"
    },
    {
      "inputs": [
        {
          "internalType": "address",
          "name": "operator",
          "type": "address"
        },
        {
          "internalType": "bool",
          "name": "approved",
          "type": "bool"
        }
      ],
      "name": "setApprovalForAll",
      "outputs": [],
      "stateMutability": "nonpayable",
      "type": "function"
    },
    {
      "inputs": [
        {
          "internalType": "bytes4",
          "name": "interfaceId",
          "type": "bytes4"
        }
      ],
      "name": "supportsInterface",
      "outputs": [
        {
          "internalType": "bool",
          "name": "",
          "type": "bool"
        }
      ],
      "stateMutability": "view",
      "type": "function"
    },
    {
      "inputs": [],
      "name": "symbol",
      "outputs": [
        {
          "internalType": "string",
          "name": "",
          "type": "string"
        }
      ],
      "stateMutability": "view",
      "type": "function"
    },
    {
      "inputs": [
        {
          "internalType": "uint256",
          "name": "index",
          "type": "uint256"
        }
      ],
      "name": "tokenByIndex",
      "outputs": [
        {
          "internalType": "uint256",
          "name": "",
          "type": "uint256"
        }
      ],
      "stateMutability": "view",
      "type": "function"
    },
    {
      "inputs": [
        {
          "internalType": "address",
          "name": "owner",
          "type": "address"
        },
        {
          "internalType": "uint256",
          "name": "index",
          "type": "uint256"
        }
      ],
      "name": "tokenOfOwnerByIndex",
      "outputs": [
        {
          "internalType": "uint256",
          "name": "",
          "type": "uint256"
        }
      ],
      "stateMutability": "view",
      "type": "function"
    },
    {
      "inputs": [
        {
          "internalType": "uint256",
          "name": "tokenId",
          "type": "uint256"
        }
      ],
      "name": "tokenURI",
      "outputs": [
        {
          "internalType": "string",
          "name": "",
          "type": "string"
        }
      ],
      "stateMutability": "view",
      "type": "function"
    },
    {
      "inputs": [],
      "name": "totalSupply",
      "outputs": [
        {
          "internalType": "uint256",
          "name": "",
          "type": "uint256"
        }
      ],
      "stateMutability": "view",
      "type": "function"
    },
    {
      "inputs": [
        {
          "internalType": "address",
          "name": "from",
          "type": "address"
        },
        {
          "internalType": "address",
          "name": "to",
          "type": "address"
        },
        {
          "internalType": "uint256",
          "name": "tokenId",
          "type": "uint256"
        }
      ],
      "name": "transferFrom",
      "outputs": [],
      "stateMutability": "nonpayable",
      "type": "function"
    },
    {
      "inputs": [
        {
          "internalType": "address",
          "name": "newOwner",
          "type": "address"
        }
      ],
      "name": "transferOwnership",
      "outputs": [],
      "stateMutability": "nonpayable",
      "type": "function"
    },
    {
      "inputs": [
        {
          "internalType": "address",
          "name": "_newContract",
          "type": "address"
        }
      ],
      "name": "updateCampaignFundingContract",
      "outputs": [],
      "stateMutability": "nonpayable",
      "type": "function"
    },
    {
      "inputs": [
        {
          "internalType": "uint256",
          "name": "_newMaxSupply",
          "type": "uint256"
        }
      ],
      "name": "updateMaxSupply",
      "outputs": [],
      "stateMutability": "nonpayable",
      "type": "function"
    },
    {
      "inputs": [
        {
          "internalType": "address",
          "name": "_newWallet",
          "type": "address"
        }
      ],
      "name": "updatePlatformWallet",
      "outputs": [],
      "stateMutability": "nonpayable",
      "type": "function"
    },
    {
      "inputs": [
        {
          "internalType": "uint256",
          "name": "tokenId",
          "type": "uint256"
        },
        {
          "internalType": "uint256",
          "name": "newRoyaltyPercentage",
          "type": "uint256"
        }
      ],
      "name": "updateRoyalty",
      "outputs": [],
      "stateMutability": "nonpayable",
      "type": "function"
    },
    {
      "inputs": [
        {
          "internalType": "uint256",
          "name": "tokenId",
          "type": "uint256"
        },
        {
          "internalType": "bool",
          "name": "isTransferable",
          "type": "bool"
        }
      ],
      "name": "updateTransferability",
      "outputs": [],
      "stateMutability": "nonpayable",
      "type": "function"
    },
    {
      "inputs": [
        {
          "internalType": "address",
          "name": "",
          "type": "address"
        },
        {
          "internalType": "uint256",
          "name": "",
          "type": "uint256"
        }
      ],
      "name": "userNFTs",
      "outputs": [
        {
          "internalType": "uint256",
          "name": "",
          "type": "uint256"
        }
      ],
      "stateMutability": "view",
      "type": "function"
    }
  ],
  "bytecode": "0x6080604052620f42406013556101f46014553480156200001e57600080fd5b5060405162003d7f38038062003d7f8339810160408190526200004191620001f8565b8383600062000051838262000316565b50600162000060828262000316565b5050506200007d62000077620000c060201b60201c565b620000c4565b6001600e819055601580546001600160a01b039485166001600160a01b031991821617909155601680549390941692169190911790915560125550620003e29050565b3390565b600d80546001600160a01b038381166001600160a01b0319831681179093556040519116919082907f8be0079c531659141344cd1fd0a4f28419497f9722a3daafe3b4186f6b6457e090600090a35050565b634e487b7160e01b600052604160045260246000fd5b600082601f8301126200013e57600080fd5b81516001600160401b03808211156200015b576200015b62000116565b604051601f8301601f19908116603f0116810190828211818310171562000186576200018662000116565b81604052838152602092508683858801011115620001a357600080fd5b600091505b83821015620001c75785820183015181830184015290820190620001a8565b600093810190920192909252949350505050565b80516001600160a01b0381168114620001f357600080fd5b919050565b600080600080608085870312156200020f57600080fd5b84516001600160401b03808211156200022757600080fd5b62000235888389016200012c565b955060208701519150808211156200024c57600080fd5b506200025b878288016200012c565b9350506200026c60408601620001db565b91506200027c60608601620001db565b905092959194509250565b600181811c908216806200029c57607f821691505b602082108103620002bd57634e487b7160e01b600052602260045260246000fd5b50919050565b601f8211156200031157600081815260208120601f850160051c81016020861015620002ec5750805b601f850160051c820191505b818110156200030d57828155600101620002f8565b5050505b505050565b81516001600160401b0381111562000332576200033262000116565b6200034a8162000343845462000287565b84620002c3565b602080601f831160018114620003825760008415620003695750858301515b600019600386901b1c1916600185901b1785556200030d565b600085815260208120601f198616915b82811015620003b35788860151825594840194600190910190840162000392565b5085821015620003d25787850151600019600388901b60f8161c191681555b5050505050600190811b01905550565b61398d80620003f26000396000f3fe608060405234801561001057600080fd5b506004361061023d5760003560e01c8063715018a61161013b578063b88d4fde116100b8578063e985e9c51161007c578063e985e9c51461054e578063f103b4331461058a578063f2fde38b1461059d578063f58c7dc8146105b0578063fa2af9da146105c357600080fd5b8063b88d4fde146104ec578063bb89423e146104ff578063c87b56dd1461051f578063d5abeb0114610532578063e58a068b1461053b57600080fd5b8063a0ab9045116100ff578063a0ab90451461046a578063a0d7d8911461047d578063a22cb465146104a6578063ada4ef30146104b9578063aefc65c0146104cc57600080fd5b8063715018a61461040e578063809e0641146104165780638c210975146104295780638da5cb5b1461045157806395d89b411461046257600080fd5b80632a55205a116101c957806352de4ee51161018d57806352de4ee5146103a257806357807503146103c25780636352211e146103d55780637021b56d146103e857806370a08231146103fb57600080fd5b80632a55205a146103245780632f745c591461035657806339663cf41461036957806342842e0e1461037c5780634f6ccce71461038f57600080fd5b80630ad4c4f4116102105780630ad4c4f4146102bf578063139d8325146102df57806318160ddd146102f657806323b872dd146102fe578063291c73c31461031157600080fd5b806301ffc9a71461024257806306fdde031461026a578063081812fc1461027f578063095ea7b3146102aa575b600080fd5b610255610250366004612e73565b6105d6565b60405190151581526020015b60405180910390f35b6102726105e7565b6040516102619190612ee0565b61029261028d366004612ef3565b610679565b6040516001600160a01b039091168152602001610261565b6102bd6102b8366004612f28565b6106a0565b005b6102d26102cd366004612ef3565b6107ba565b6040516102619190612f52565b6102e860145481565b604051908152602001610261565b6102e861095f565b6102bd61030c366004612fea565b610975565b6102e861031f366004612f28565b6109a6565b610337610332366004613026565b6109d7565b604080516001600160a01b039093168352602083019190915201610261565b6102e8610364366004612f28565b610a83565b6102bd610377366004613048565b610b19565b6102bd61038a366004612fea565b610b99565b6102e861039d366004612ef3565b610bb4565b6103b56103b0366004613048565b610c47565b604051610261919061309e565b6102bd6103d03660046130c1565b610cb3565b6102926103e3366004612ef3565b610dc2565b6102e86103f63660046131ac565b610e22565b6102e8610409366004613048565b611142565b6102bd6111c8565b6102bd610424366004613026565b6111dc565b61043c610437366004612ef3565b611307565b60405161026199989796959493929190613215565b600d546001600160a01b0316610292565b6102726113eb565b6103b561047836600461330b565b6113fa565b61029261048b366004612ef3565b6017602052600090815260409020546001600160a01b031681565b6102bd6104b4366004613420565b6119b7565b6102bd6104c7366004613048565b6119c6565b6102e86104da366004612ef3565b60106020526000908152604090205481565b6102bd6104fa36600461344a565b611a3f565b6102e861050d366004612ef3565b60009081526010602052604090205490565b61027261052d366004612ef3565b611a77565b6102e860135481565b601554610292906001600160a01b031681565b61025561055c3660046134c6565b6001600160a01b03918216600090815260056020908152604080832093909416825291909152205460ff1690565b6102bd610598366004612ef3565b611a82565b6102bd6105ab366004613048565b611b03565b6103b56105be366004612ef3565b611b7c565b601654610292906001600160a01b031681565b60006105e182611c4b565b92915050565b6060600080546105f6906134f0565b80601f0160208091040260200160405190810160405280929190818152602001828054610622906134f0565b801561066f5780601f106106445761010080835404028352916020019161066f565b820191906000526020600020905b81548152906001019060200180831161065257829003601f168201915b5050505050905090565b600061068482611c70565b506000908152600460205260409020546001600160a01b031690565b60006106ab82610dc2565b9050806001600160a01b0316836001600160a01b03160361071d5760405162461bcd60e51b815260206004820152602160248201527f4552433732313a20617070726f76616c20746f2063757272656e74206f776e656044820152603960f91b60648201526084015b60405180910390fd5b336001600160a01b03821614806107395750610739813361055c565b6107ab5760405162461bcd60e51b815260206004820152603d60248201527f4552433732313a20617070726f76652063616c6c6572206973206e6f7420746f60448201527f6b656e206f776e6572206f7220617070726f76656420666f7220616c6c0000006064820152608401610714565b6107b58383611cc0565b505050565b61081d604051806101200160405280600081526020016000815260200160006001600160a01b0316815260200160006001600160a01b03168152602001600081526020016000815260200160608152602001600081526020016000151581525090565b61082682611d2e565b6108425760405162461bcd60e51b81526004016107149061352a565b6000828152600f60209081526040918290208251610120810184528154815260018201549281019290925260028101546001600160a01b03908116938301939093526003810154909216606082015260048201546080820152600582015460a082015260068201805491929160c0840191906108bd906134f0565b80601f01602080910402602001604051908101604052809291908181526020018280546108e9906134f0565b80156109365780601f1061090b57610100808354040283529160200191610936565b820191906000526020600020905b81548152906001019060200180831161091957829003601f168201915b50505091835250506007820154602082015260089091015460ff16151560409091015292915050565b60006001601254610970919061356e565b905090565b61097f3382611d4b565b61099b5760405162461bcd60e51b815260040161071490613581565b6107b5838383611de2565b601160205281600052604060002081815481106109c257600080fd5b90600052602060002001600091509150505481565b6000828152600c602090815260408083208151808301909252546001600160a01b038116808352600160a01b9091046001600160601b0316928201929092528291610a4c575060408051808201909152600b546001600160a01b0381168252600160a01b90046001600160601b031660208201525b602081015160009061271090610a6b906001600160601b0316876135ce565b610a7591906135e5565b915196919550909350505050565b6000610a8e83611142565b8210610af05760405162461bcd60e51b815260206004820152602b60248201527f455243373231456e756d657261626c653a206f776e657220696e646578206f7560448201526a74206f6620626f756e647360a81b6064820152608401610714565b506001600160a01b03919091166000908152600760209081526040808320938352929052205490565b610b21611f5b565b6001600160a01b038116610b775760405162461bcd60e51b815260206004820152601860248201527f496e76616c696420636f6e7472616374206164647265737300000000000000006044820152606401610714565b601580546001600160a01b0319166001600160a01b0392909216919091179055565b6107b583838360405180602001604052806000815250611a3f565b6000610bbf60095490565b8210610c225760405162461bcd60e51b815260206004820152602c60248201527f455243373231456e756d657261626c653a20676c6f62616c20696e646578206f60448201526b7574206f6620626f756e647360a01b6064820152608401610714565b60098281548110610c3557610c35613607565b90600052602060002001549050919050565b6001600160a01b038116600090815260116020908152604091829020805483518184028101840190945280845260609392830182828015610ca757602002820191906000526020600020905b815481526020019060010190808311610c93575b50505050509050919050565b610cbc82611d2e565b610cd85760405162461bcd60e51b81526004016107149061352a565b610ce182610dc2565b6001600160a01b0316336001600160a01b03161480610d0a5750600d546001600160a01b031633145b610d675760405162461bcd60e51b815260206004820152602860248201527f4e6f7420617574686f72697a656420746f20757064617465207472616e736665604482015267726162696c69747960c01b6064820152608401610714565b6000828152600f6020908152604091829020600801805460ff1916841515908117909155915191825283917f480d7bdcdde3a813fe04e53b65427a5b7ff160043dcfa6541850afa6a896535d91015b60405180910390a25050565b6000818152600260205260408120546001600160a01b0316806105e15760405162461bcd60e51b8152602060048201526018602482015277115490cdcc8c4e881a5b9d985b1a59081d1bdad95b88125160421b6044820152606401610714565b6000610e2c611f5b565b610e34611fb5565b6001600160a01b038616610e865760405162461bcd60e51b8152602060048201526019602482015278496e76616c696420726563697069656e74206164647265737360381b6044820152606401610714565b60008411610ea65760405162461bcd60e51b81526004016107149061361d565b6000835111610ef75760405162461bcd60e51b815260206004820152601c60248201527f4d65746164617461205552492063616e6e6f7420626520656d707479000000006044820152606401610714565b6103e8821115610f195760405162461bcd60e51b815260040161071490613667565b6013546012541115610f665760405162461bcd60e51b815260206004820152601660248201527513585e1a5b5d5b481cdd5c1c1b1e481c995858da195960521b6044820152606401610714565b601280549081906000610f788361369e565b9091555050604080516101208101825282815260208082018981526001600160a01b03808c1684860181815260608601918252608086018c815260a087018b815260c088018d81524260e08a015260016101008a0181905260008c8152600f909952999097208851815595519886019890985590516002850180549185166001600160a01b03199283161790559151600385018054919094169216919091179091555160048201559251600584015551909190600682019061103a9082613705565b5060e08201516007820155610100909101516008909101805460ff1916911515919091179055600086815260106020526040812080549161107a8361369e565b90915550506001600160a01b03871660008181526011602090815260408083208054600181018255908452828420018590558483526017909152902080546001600160a01b03191690911790556110d1878261200e565b6110db8185612028565b6110e68188856120e4565b866001600160a01b031686827f04bcd650b6ebaf2414f2473a779af7e70ad5bedba910611a801e4f6a90aae88f8a8989604051611125939291906137c5565b60405180910390a490506111396001600e55565b95945050505050565b60006001600160a01b0382166111ac5760405162461bcd60e51b815260206004820152602960248201527f4552433732313a2061646472657373207a65726f206973206e6f7420612076616044820152683634b21037bbb732b960b91b6064820152608401610714565b506001600160a01b031660009081526003602052604090205490565b6111d0611f5b565b6111da60006121f2565b565b6111e582611d2e565b6112015760405162461bcd60e51b81526004016107149061352a565b6103e88111156112235760405162461bcd60e51b815260040161071490613667565b61122c82610dc2565b6001600160a01b0316336001600160a01b031614806112555750600d546001600160a01b031633145b6112a15760405162461bcd60e51b815260206004820181905260248201527f4e6f7420617574686f72697a656420746f2075706461746520726f79616c74796044820152606401610714565b6000828152600f6020908152604080832060050184905560179091529020546112d59083906001600160a01b0316836120e4565b817f54e506cda8889617ec187c699f1c3b373053eb5796248194796f7e1501dfab2482604051610db691815260200190565b600f602052600090815260409020805460018201546002830154600384015460048501546005860154600687018054969795966001600160a01b0395861696949095169492939192611358906134f0565b80601f0160208091040260200160405190810160405280929190818152602001828054611384906134f0565b80156113d15780601f106113a6576101008083540402835291602001916113d1565b820191906000526020600020905b8154815290600101906020018083116113b457829003601f168201915b50505050600783015460089093015491929160ff16905089565b6060600180546105f6906134f0565b6060611404611f5b565b61140c611fb5565b6001600160a01b03861661145e5760405162461bcd60e51b8152602060048201526019602482015278496e76616c696420726563697069656e74206164647265737360381b6044820152606401610714565b82518451148015611470575081518351145b6114bc5760405162461bcd60e51b815260206004820152601860248201527f4172726179206c656e67746873206d757374206d6174636800000000000000006044820152606401610714565b600084511161150d5760405162461bcd60e51b815260206004820152601a60248201527f4d757374206d696e74206174206c65617374206f6e65204e46540000000000006044820152606401610714565b6013546001855160125461152191906137ec565b61152b919061356e565b11156115795760405162461bcd60e51b815260206004820152601760248201527f4d6178696d756d20737570706c792065786365656465640000000000000000006044820152606401610714565b6000845167ffffffffffffffff811115611595576115956130ed565b6040519080825280602002602001820160405280156115be578160200160208202803683370190505b50905060005b85518110156119675760008682815181106115e1576115e1613607565b6020026020010151116116065760405162461bcd60e51b81526004016107149061361d565b600085828151811061161a5761161a613607565b602002602001015151116116705760405162461bcd60e51b815260206004820152601c60248201527f4d65746164617461205552492063616e6e6f7420626520656d707479000000006044820152606401610714565b6103e884828151811061168557611685613607565b602002602001015111156116ab5760405162461bcd60e51b815260040161071490613667565b6012805490819060006116bd8361369e565b91905055506040518061012001604052808281526020018981526020018a6001600160a01b031681526020018a6001600160a01b0316815260200188848151811061170a5761170a613607565b6020026020010151815260200186848151811061172957611729613607565b6020026020010151815260200187848151811061174857611748613607565b60209081029190910181015182524282820152600160409283018190526000858152600f8352839020845181559184015190820155908201516002820180546001600160a01b039283166001600160a01b03199182161790915560608401516003840180549190931691161790556080820151600482015560a0820151600582015560c082015160068201906117de9082613705565b5060e08201516007820155610100909101516008909101805460ff1916911515919091179055600088815260106020526040812080549161181e8361369e565b90915550506001600160a01b03891660008181526011602090815260408083208054600181018255908452828420018590558483526017909152902080546001600160a01b0319169091179055611875898261200e565b6118988187848151811061188b5761188b613607565b6020026020010151612028565b6118bc818a8785815181106118af576118af613607565b60200260200101516120e4565b808383815181106118cf576118cf613607565b602002602001018181525050886001600160a01b031688827f04bcd650b6ebaf2414f2473a779af7e70ad5bedba910611a801e4f6a90aae88f8c8b878151811061191b5761191b613607565b60200260200101518b888151811061193557611935613607565b602002602001015160405161194c939291906137c5565b60405180910390a4508061195f8161369e565b9150506115c4565b50866001600160a01b03167f7a72b125fa2356694fdb76c1db4781866847dab4b198c7bee0f8ed9fdb7cd29f82886040516119a39291906137ff565b60405180910390a290506111396001600e55565b6119c2338383612244565b5050565b6119ce611f5b565b6001600160a01b038116611a1d5760405162461bcd60e51b8152602060048201526016602482015275496e76616c69642077616c6c6574206164647265737360501b6044820152606401610714565b601680546001600160a01b0319166001600160a01b0392909216919091179055565b611a493383611d4b565b611a655760405162461bcd60e51b815260040161071490613581565b611a7184848484612312565b50505050565b60606105e182612345565b611a8a611f5b565b6001601254611a99919061356e565b8111611afe5760405162461bcd60e51b815260206004820152602e60248201527f4d617820737570706c79206d7573742062652067726561746572207468616e2060448201526d63757272656e7420737570706c7960901b6064820152608401610714565b601355565b611b0b611f5b565b6001600160a01b038116611b705760405162461bcd60e51b815260206004820152602660248201527f4f776e61626c653a206e6577206f776e657220697320746865207a65726f206160448201526564647265737360d01b6064820152608401610714565b611b79816121f2565b50565b6000818152601060205260408120546060918167ffffffffffffffff811115611ba757611ba76130ed565b604051908082528060200260200182016040528015611bd0578160200160208202803683370190505b509050600060015b601254811015611c41576000818152600f6020526040902060010154869003611c2f5780838381518110611c0e57611c0e613607565b602090810291909101015281611c238161369e565b92505083821015611c41575b80611c398161369e565b915050611bd8565b5090949350505050565b60006001600160e01b0319821663152a902d60e11b14806105e157506105e18261244d565b611c7981611d2e565b611b795760405162461bcd60e51b8152602060048201526018602482015277115490cdcc8c4e881a5b9d985b1a59081d1bdad95b88125160421b6044820152606401610714565b600081815260046020526040902080546001600160a01b0319166001600160a01b0384169081179091558190611cf582610dc2565b6001600160a01b03167f8c5be1e5ebec7d5bd14f71427d1e84f3dd0314c0f7b2291e5b200ac8c7c3b92560405160405180910390a45050565b6000908152600260205260409020546001600160a01b0316151590565b600080611d5783610dc2565b9050806001600160a01b0316846001600160a01b03161480611d9e57506001600160a01b0380821660009081526005602090815260408083209388168352929052205460ff165b80611dc25750836001600160a01b0316611db784610679565b6001600160a01b0316145b80611dda5750600d546001600160a01b038581169116145b949350505050565b826001600160a01b0316611df582610dc2565b6001600160a01b031614611e1b5760405162461bcd60e51b815260040161071490613821565b6001600160a01b038216611e7d5760405162461bcd60e51b8152602060048201526024808201527f4552433732313a207472616e7366657220746f20746865207a65726f206164646044820152637265737360e01b6064820152608401610714565b611e8a8383836001612472565b826001600160a01b0316611e9d82610dc2565b6001600160a01b031614611ec35760405162461bcd60e51b815260040161071490613821565b600081815260046020908152604080832080546001600160a01b03199081169091556001600160a01b0387811680865260038552838620805460001901905590871680865283862080546001019055868652600290945282852080549092168417909155905184937fddf252ad1be2c89b69c2b068fc378daa952ba7f163c4a11628f55a4df523b3ef91a46107b58383836001612519565b600d546001600160a01b031633146111da5760405162461bcd60e51b815260206004820181905260248201527f4f776e61626c653a2063616c6c6572206973206e6f7420746865206f776e65726044820152606401610714565b6002600e54036120075760405162461bcd60e51b815260206004820152601f60248201527f5265656e7472616e637947756172643a207265656e7472616e742063616c6c006044820152606401610714565b6002600e55565b6119c28282604051806020016040528060008152506125be565b61203182611d2e565b6120945760405162461bcd60e51b815260206004820152602e60248201527f45524337323155524953746f726167653a2055524920736574206f66206e6f6e60448201526d32bc34b9ba32b73a103a37b5b2b760911b6064820152608401610714565b60008281526006602052604090206120ac8282613705565b506040518281527ff8e1a15aba9398e019f0b49df1a4fde98ee17ae345cb5f6b5e2c27f5033e8ce79060200160405180910390a15050565b6127106001600160601b03821611156121525760405162461bcd60e51b815260206004820152602a60248201527f455243323938313a20726f79616c7479206665652077696c6c206578636565646044820152692073616c65507269636560b01b6064820152608401610714565b6001600160a01b0382166121a85760405162461bcd60e51b815260206004820152601b60248201527f455243323938313a20496e76616c696420706172616d657465727300000000006044820152606401610714565b6040805180820182526001600160a01b0393841681526001600160601b0392831660208083019182526000968752600c90529190942093519051909116600160a01b029116179055565b600d80546001600160a01b038381166001600160a01b0319831681179093556040519116919082907f8be0079c531659141344cd1fd0a4f28419497f9722a3daafe3b4186f6b6457e090600090a35050565b816001600160a01b0316836001600160a01b0316036122a55760405162461bcd60e51b815260206004820152601960248201527f4552433732313a20617070726f766520746f2063616c6c6572000000000000006044820152606401610714565b6001600160a01b03838116600081815260056020908152604080832094871680845294825291829020805460ff191686151590811790915591519182527f17307eab39ab6107e8899845ad3d59bd9653f200f220920489ca2b5937696c31910160405180910390a3505050565b61231d848484611de2565b612329848484846125f1565b611a715760405162461bcd60e51b815260040161071490613866565b606061235082611c70565b60008281526006602052604081208054612369906134f0565b80601f0160208091040260200160405190810160405280929190818152602001828054612395906134f0565b80156123e25780601f106123b7576101008083540402835291602001916123e2565b820191906000526020600020905b8154815290600101906020018083116123c557829003601f168201915b50505050509050600061240060408051602081019091526000815290565b90508051600003612412575092915050565b81511561244457808260405160200161242c9291906138b8565b60405160208183030381529060405292505050919050565b611dda846126f2565b60006001600160e01b0319821663780e9d6360e01b14806105e157506105e182612766565b6001600160a01b0384161580159061249257506001600160a01b03831615155b1561250d576000828152600f602052604090206008015460ff16806124c15750600d546001600160a01b031633145b61250d5760405162461bcd60e51b815260206004820152601760248201527f4e4654206973206e6f74207472616e7366657261626c650000000000000000006044820152606401610714565b611a718484848461278b565b6001600160a01b0384161580159061253957506001600160a01b03831615155b156125b9576000828152600f6020526040902060030180546001600160a01b0319166001600160a01b038581169190911790915584161561257e5761257e84836128bf565b6001600160a01b038316156125b9576001600160a01b0383166000908152601160209081526040822080546001810182559083529120018290555b611a71565b6125c8838361298d565b6125d560008484846125f1565b6107b55760405162461bcd60e51b815260040161071490613866565b60006001600160a01b0384163b156126e757604051630a85bd0160e11b81526001600160a01b0385169063150b7a02906126359033908990889088906004016138e7565b6020604051808303816000875af1925050508015612670575060408051601f3d908101601f1916820190925261266d91810190613924565b60015b6126cd573d80801561269e576040519150601f19603f3d011682016040523d82523d6000602084013e6126a3565b606091505b5080516000036126c55760405162461bcd60e51b815260040161071490613866565b805181602001fd5b6001600160e01b031916630a85bd0160e11b149050611dda565b506001949350505050565b60606126fd82611c70565b600061271460408051602081019091526000815290565b90506000815111612734576040518060200160405280600081525061275f565b8061273e84612b12565b60405160200161274f9291906138b8565b6040516020818303038152906040525b9392505050565b60006001600160e01b03198216632483248360e11b14806105e157506105e182612ba5565b60018111156127fa5760405162461bcd60e51b815260206004820152603560248201527f455243373231456e756d657261626c653a20636f6e7365637574697665207472604482015274185b9cd9995c9cc81b9bdd081cdd5c1c1bdc9d1959605a1b6064820152608401610714565b816001600160a01b0385166128565761285181600980546000838152600a60205260408120829055600182018355919091527f6e1540171b6c0c960b71a7020d9f60077f6af931a8bbf590da0223dacf75c7af0155565b612879565b836001600160a01b0316856001600160a01b031614612879576128798582612bf5565b6001600160a01b0384166128955761289081612c92565b6128b8565b846001600160a01b0316846001600160a01b0316146128b8576128b88482612d41565b5050505050565b6001600160a01b0382166000908152601160205260408120905b8154811015611a7157828282815481106128f5576128f5613607565b90600052602060002001540361297b57815482906129159060019061356e565b8154811061292557612925613607565b906000526020600020015482828154811061294257612942613607565b90600052602060002001819055508180548061296057612960613941565b60019003818190600052602060002001600090559055611a71565b806129858161369e565b9150506128d9565b6001600160a01b0382166129e35760405162461bcd60e51b815260206004820181905260248201527f4552433732313a206d696e7420746f20746865207a65726f20616464726573736044820152606401610714565b6129ec81611d2e565b15612a395760405162461bcd60e51b815260206004820152601c60248201527f4552433732313a20746f6b656e20616c7265616479206d696e746564000000006044820152606401610714565b612a47600083836001612472565b612a5081611d2e565b15612a9d5760405162461bcd60e51b815260206004820152601c60248201527f4552433732313a20746f6b656e20616c7265616479206d696e746564000000006044820152606401610714565b6001600160a01b038216600081815260036020908152604080832080546001019055848352600290915280822080546001600160a01b0319168417905551839291907fddf252ad1be2c89b69c2b068fc378daa952ba7f163c4a11628f55a4df523b3ef908290a46119c2600083836001612519565b60606000612b1f83612d85565b600101905060008167ffffffffffffffff811115612b3f57612b3f6130ed565b6040519080825280601f01601f191660200182016040528015612b69576020820181803683370190505b5090508181016020015b600019016f181899199a1a9b1b9c1cb0b131b232b360811b600a86061a8153600a8504945084612b7357509392505050565b60006001600160e01b031982166380ac58cd60e01b1480612bd657506001600160e01b03198216635b5e139f60e01b145b806105e157506301ffc9a760e01b6001600160e01b03198316146105e1565b60006001612c0284611142565b612c0c919061356e565b600083815260086020526040902054909150808214612c5f576001600160a01b03841660009081526007602090815260408083208584528252808320548484528184208190558352600890915290208190555b5060009182526008602090815260408084208490556001600160a01b039094168352600781528383209183525290812055565b600954600090612ca49060019061356e565b6000838152600a602052604081205460098054939450909284908110612ccc57612ccc613607565b906000526020600020015490508060098381548110612ced57612ced613607565b6000918252602080832090910192909255828152600a90915260408082208490558582528120556009805480612d2557612d25613941565b6001900381819060005260206000200160009055905550505050565b6000612d4c83611142565b6001600160a01b039093166000908152600760209081526040808320868452825280832085905593825260089052919091209190915550565b60008072184f03e93ff9f4daa797ed6e38ed64bf6a1f0160401b8310612dc45772184f03e93ff9f4daa797ed6e38ed64bf6a1f0160401b830492506040015b6d04ee2d6d415b85acef81000000008310612df0576d04ee2d6d415b85acef8100000000830492506020015b662386f26fc100008310612e0e57662386f26fc10000830492506010015b6305f5e1008310612e26576305f5e100830492506008015b6127108310612e3a57612710830492506004015b60648310612e4c576064830492506002015b600a83106105e15760010192915050565b6001600160e01b031981168114611b7957600080fd5b600060208284031215612e8557600080fd5b813561275f81612e5d565b60005b83811015612eab578181015183820152602001612e93565b50506000910152565b60008151808452612ecc816020860160208601612e90565b601f01601f19169290920160200192915050565b60208152600061275f6020830184612eb4565b600060208284031215612f0557600080fd5b5035919050565b80356001600160a01b0381168114612f2357600080fd5b919050565b60008060408385031215612f3b57600080fd5b612f4483612f0c565b946020939093013593505050565b60208152815160208201526020820151604082015260006040830151612f8360608401826001600160a01b03169052565b5060608301516001600160a01b038116608084015250608083015160a083015260a083015160c083015260c08301516101208060e0850152612fc9610140850183612eb4565b60e08601516101008681019190915286015180151583870152909250611c41565b600080600060608486031215612fff57600080fd5b61300884612f0c565b925061301660208501612f0c565b9150604084013590509250925092565b6000806040838503121561303957600080fd5b50508035926020909101359150565b60006020828403121561305a57600080fd5b61275f82612f0c565b600081518084526020808501945080840160005b8381101561309357815187529582019590820190600101613077565b509495945050505050565b60208152600061275f6020830184613063565b80358015158114612f2357600080fd5b600080604083850312156130d457600080fd5b823591506130e4602084016130b1565b90509250929050565b634e487b7160e01b600052604160045260246000fd5b604051601f8201601f1916810167ffffffffffffffff8111828210171561312c5761312c6130ed565b604052919050565b600067ffffffffffffffff83111561314e5761314e6130ed565b613161601f8401601f1916602001613103565b905082815283838301111561317557600080fd5b828260208301376000602084830101529392505050565b600082601f83011261319d57600080fd5b61275f83833560208501613134565b600080600080600060a086880312156131c457600080fd5b6131cd86612f0c565b94506020860135935060408601359250606086013567ffffffffffffffff8111156131f757600080fd5b6132038882890161318c565b95989497509295608001359392505050565b898152602081018990526001600160a01b038881166040830152871660608201526080810186905260a0810185905261012060c0820181905260009061325d83820187612eb4565b60e0840195909552505090151561010090910152979650505050505050565b600067ffffffffffffffff821115613296576132966130ed565b5060051b60200190565b600082601f8301126132b157600080fd5b813560206132c66132c18361327c565b613103565b82815260059290921b840181019181810190868411156132e557600080fd5b8286015b8481101561330057803583529183019183016132e9565b509695505050505050565b600080600080600060a0868803121561332357600080fd5b61332c86612f0c565b94506020808701359450604087013567ffffffffffffffff8082111561335157600080fd5b61335d8a838b016132a0565b9550606089013591508082111561337357600080fd5b818901915089601f83011261338757600080fd5b81356133956132c18261327c565b81815260059190911b8301840190848101908c8311156133b457600080fd5b8585015b838110156133ec578035858111156133d05760008081fd5b6133de8f89838a010161318c565b8452509186019186016133b8565b5096505050608089013592508083111561340557600080fd5b5050613413888289016132a0565b9150509295509295909350565b6000806040838503121561343357600080fd5b61343c83612f0c565b91506130e4602084016130b1565b6000806000806080858703121561346057600080fd5b61346985612f0c565b935061347760208601612f0c565b925060408501359150606085013567ffffffffffffffff81111561349a57600080fd5b8501601f810187136134ab57600080fd5b6134ba87823560208401613134565b91505092959194509250565b600080604083850312156134d957600080fd5b6134e283612f0c565b91506130e460208401612f0c565b600181811c9082168061350457607f821691505b60208210810361352457634e487b7160e01b600052602260045260246000fd5b50919050565b602080825260149082015273151bdad95b88191bd95cc81b9bdd08195e1a5cdd60621b604082015260600190565b634e487b7160e01b600052601160045260246000fd5b818103818111156105e1576105e1613558565b6020808252602d908201527f4552433732313a2063616c6c6572206973206e6f7420746f6b656e206f776e6560408201526c1c881bdc88185c1c1c9bdd9959609a1b606082015260800190565b80820281158282048414176105e1576105e1613558565b60008261360257634e487b7160e01b600052601260045260246000fd5b500490565b634e487b7160e01b600052603260045260246000fd5b6020808252602a908201527f436f6e747269627574696f6e20616d6f756e74206d75737420626520677265616040820152690746572207468616e20360b41b606082015260800190565b60208082526019908201527f526f79616c74792063616e6e6f74206578636565642031302500000000000000604082015260600190565b6000600182016136b0576136b0613558565b5060010190565b601f8211156107b557600081815260208120601f850160051c810160208610156136de5750805b601f850160051c820191505b818110156136fd578281556001016136ea565b505050505050565b815167ffffffffffffffff81111561371f5761371f6130ed565b6137338161372d84546134f0565b846136b7565b602080601f83116001811461376857600084156137505750858301515b600019600386901b1c1916600185901b1785556136fd565b600085815260208120601f198616915b8281101561379757888601518255948401946001909101908401613778565b50858210156137b55787850151600019600388901b60f8161c191681555b5050505050600190811b01905550565b60018060a01b03841681528260208201526060604082015260006111396060830184612eb4565b808201808211156105e1576105e1613558565b6040815260006138126040830185613063565b90508260208301529392505050565b60208082526025908201527f4552433732313a207472616e736665722066726f6d20696e636f72726563742060408201526437bbb732b960d91b606082015260800190565b60208082526032908201527f4552433732313a207472616e7366657220746f206e6f6e20455243373231526560408201527131b2b4bb32b91034b6b83632b6b2b73a32b960711b606082015260800190565b600083516138ca818460208801612e90565b8351908301906138de818360208801612e90565b01949350505050565b6001600160a01b038581168252841660208201526040810183905260806060820181905260009061391a90830184612eb4565b9695505050505050565b60006020828403121561393657600080fd5b815161275f81612e5d565b634e487b7160e01b600052603160045260246000fdfea264697066735822122006662b12d4caff1b56446d6c017e1e0608f773cb6a1cbfab190a59e0afa5bb6c64736f6c63430008130033",
  "linkReferences": {},
  "deployedLinkReferences": {}
}