{
  "_format": "hh-sol-artifact-1",
  "contractName": "CampaignFunding",
  "sourceName": "src/CampaignFunding.sol",
  "abi": [
    {
      "inputs": [
        {
          "internalType": "address",
          "name": "_usdtToken",
          "type": "address"
        },
        {
          "internalType": "address",
          "name": "_platformWallet",
          "type": "address"
        }
      ],
      "stateMutability": "nonpayable",
      "type": "constructor"
    },
    {
      "anonymous": false,
      "inputs": [
        {
          "indexed": true,
          "internalType": "uint256",
          "name": "campaignId",
          "type": "uint256"
        },
        {
          "indexed": true,
          "internalType": "address",
          "name": "creator",
          "type": "address"
        },
        {
          "indexed": false,
          "internalType": "string",
          "name": "title",
          "type": "string"
        },
        {
          "indexed": false,
          "internalType": "uint256",
          "name": "fundingGoal",
          "type": "uint256"
        },
        {
          "indexed": false,
          "internalType": "uint256",
          "name": "startTime",
          "type": "uint256"
        },
        {
          "indexed": false,
          "internalType": "uint256",
          "name": "endTime",
          "type": "uint256"
        }
      ],
      "name": "CampaignCreated",
      "type": "event"
    },
    {
      "anonymous": false,
      "inputs": [
        {
          "indexed": true,
          "internalType": "uint256",
          "name": "campaignId",
          "type": "uint256"
        },
        {
          "indexed": false,
          "internalType": "uint256",
          "name": "totalFunding",
          "type": "uint256"
        }
      ],
      "name": "CampaignFailed",
      "type": "event"
    },
    {
      "anonymous": false,
      "inputs": [
        {
          "indexed": true,
          "internalType": "uint256",
          "name": "campaignId",
          "type": "uint256"
        },
        {
          "indexed": false,
          "internalType": "uint256",
          "name": "totalFunding",
          "type": "uint256"
        }
      ],
      "name": "CampaignFunded",
      "type": "event"
    },
    {
      "anonymous": false,
      "inputs": [
        {
          "indexed": true,
          "internalType": "uint256",
          "name": "campaignId",
          "type": "uint256"
        },
        {
          "indexed": true,
          "internalType": "address",
          "name": "backer",
          "type": "address"
        },
        {
          "indexed": false,
          "internalType": "uint256",
          "name": "amount",
          "type": "uint256"
        },
        {
          "indexed": false,
          "internalType": "uint256",
          "name": "totalFunding",
          "type": "uint256"
        }
      ],
      "name": "ContributionMade",
      "type": "event"
    },
    {
      "anonymous": false,
      "inputs": [
        {
          "indexed": true,
          "internalType": "uint256",
          "name": "campaignId",
          "type": "uint256"
        },
        {
          "indexed": true,
          "internalType": "address",
          "name": "creator",
          "type": "address"
        },
        {
          "indexed": false,
          "internalType": "uint256",
          "name": "amount",
          "type": "uint256"
        }
      ],
      "name": "FundsWithdrawn",
      "type": "event"
    },
    {
      "anonymous": false,
      "inputs": [
        {
          "indexed": true,
          "internalType": "address",
          "name": "previousOwner",
          "type": "address"
        },
        {
          "indexed": true,
          "internalType": "address",
          "name": "newOwner",
          "type": "address"
        }
      ],
      "name": "OwnershipTransferred",
      "type": "event"
    },
    {
      "anonymous": false,
      "inputs": [
        {
          "indexed": true,
          "internalType": "uint256",
          "name": "campaignId",
          "type": "uint256"
        },
        {
          "indexed": true,
          "internalType": "address",
          "name": "backer",
          "type": "address"
        },
        {
          "indexed": false,
          "internalType": "uint256",
          "name": "amount",
          "type": "uint256"
        }
      ],
      "name": "RefundProcessed",
      "type": "event"
    },
    {
      "inputs": [],
      "name": "CAMPAIGN_ACTIVE",
      "outputs": [
        {
          "internalType": "uint256",
          "name": "",
          "type": "uint256"
        }
      ],
      "stateMutability": "view",
      "type": "function"
    },
    {
      "inputs": [],
      "name": "CAMPAIGN_FAILED",
      "outputs": [
        {
          "internalType": "uint256",
          "name": "",
          "type": "uint256"
        }
      ],
      "stateMutability": "view",
      "type": "function"
    },
    {
      "inputs": [],
      "name": "CAMPAIGN_FUNDED",
      "outputs": [
        {
          "internalType": "uint256",
          "name": "",
          "type": "uint256"
        }
      ],
      "stateMutability": "view",
      "type": "function"
    },
    {
      "inputs": [],
      "name": "campaignCount",
      "outputs": [
        {
          "internalType": "uint256",
          "name": "",
          "type": "uint256"
        }
      ],
      "stateMutability": "view",
      "type": "function"
    },
    {
      "inputs": [
        {
          "internalType": "uint256",
          "name": "",
          "type": "uint256"
        }
      ],
      "name": "campaigns",
      "outputs": [
        {
          "internalType": "uint256",
          "name": "id",
          "type": "uint256"
        },
        {
          "internalType": "address",
          "name": "creator",
          "type": "address"
        },
        {
          "internalType": "string",
          "name": "title",
          "type": "string"
        },
        {
          "internalType": "string",
          "name": "description",
          "type": "string"
        },
        {
          "internalType": "uint256",
          "name": "fundingGoal",
          "type": "uint256"
        },
        {
          "internalType": "uint256",
          "name": "currentFunding",
          "type": "uint256"
        },
        {
          "internalType": "uint256",
          "name": "startTime",
          "type": "uint256"
        },
        {
          "internalType": "uint256",
          "name": "endTime",
          "type": "uint256"
        },
        {
          "internalType": "bool",
          "name": "isActive",
          "type": "bool"
        },
        {
          "internalType": "bool",
          "name": "isFunded",
          "type": "bool"
        },
        {
          "internalType": "bool",
          "name": "isFailed",
          "type": "bool"
        },
        {
          "internalType": "uint256",
          "name": "backerCount",
          "type": "uint256"
        }
      ],
      "stateMutability": "view",
      "type": "function"
    },
    {
      "inputs": [
        {
          "internalType": "uint256",
          "name": "_campaignId",
          "type": "uint256"
        },
        {
          "internalType": "uint256",
          "name": "_amount",
          "type": "uint256"
        }
      ],
      "name": "contribute",
      "outputs": [],
      "stateMutability": "nonpayable",
      "type": "function"
    },
    {
      "inputs": [
        {
          "internalType": "string",
          "name": "_title",
          "type": "string"
        },
        {
          "internalType": "string",
          "name": "_description",
          "type": "string"
        },
        {
          "internalType": "uint256",
          "name": "_fundingGoal",
          "type": "uint256"
        },
        {
          "internalType": "uint256",
          "name": "_duration",
          "type": "uint256"
        }
      ],
      "name": "createCampaign",
      "outputs": [
        {
          "internalType": "uint256",
          "name": "",
          "type": "uint256"
        }
      ],
      "stateMutability": "nonpayable",
      "type": "function"
    },
    {
      "inputs": [],
      "name": "emergencyWithdraw",
      "outputs": [],
      "stateMutability": "nonpayable",
      "type": "function"
    },
    {
      "inputs": [
        {
          "internalType": "uint256",
          "name": "_campaignId",
          "type": "uint256"
        }
      ],
      "name": "getCampaign",
      "outputs": [
        {
          "internalType": "uint256",
          "name": "id",
          "type": "uint256"
        },
        {
          "internalType": "address",
          "name": "creator",
          "type": "address"
        },
        {
          "internalType": "string",
          "name": "title",
          "type": "string"
        },
        {
          "internalType": "string",
          "name": "description",
          "type": "string"
        },
        {
          "internalType": "uint256",
          "name": "fundingGoal",
          "type": "uint256"
        },
        {
          "internalType": "uint256",
          "name": "currentFunding",
          "type": "uint256"
        },
        {
          "internalType": "uint256",
          "name": "startTime",
          "type": "uint256"
        },
        {
          "internalType": "uint256",
          "name": "endTime",
          "type": "uint256"
        },
        {
          "internalType": "bool",
          "name": "isActive",
          "type": "bool"
        },
        {
          "internalType": "bool",
          "name": "isFunded",
          "type": "bool"
        },
        {
          "internalType": "bool",
          "name": "isFailed",
          "type": "bool"
        },
        {
          "internalType": "uint256",
          "name": "backerCount",
          "type": "uint256"
        }
      ],
      "stateMutability": "view",
      "type": "function"
    },
    {
      "inputs": [
        {
          "internalType": "uint256",
          "name": "_campaignId",
          "type": "uint256"
        },
        {
          "internalType": "address",
          "name": "_backer",
          "type": "address"
        }
      ],
      "name": "getContribution",
      "outputs": [
        {
          "internalType": "uint256",
          "name": "",
          "type": "uint256"
        }
      ],
      "stateMutability": "view",
      "type": "function"
    },
    {
      "inputs": [
        {
          "internalType": "uint256",
          "name": "_campaignId",
          "type": "uint256"
        },
        {
          "internalType": "address",
          "name": "_backer",
          "type": "address"
        }
      ],
      "name": "hasContributed",
      "outputs": [
        {
          "internalType": "bool",
          "name": "",
          "type": "bool"
        }
      ],
      "stateMutability": "view",
      "type": "function"
    },
    {
      "inputs": [
        {
          "internalType": "uint256",
          "name": "_campaignId",
          "type": "uint256"
        }
      ],
      "name": "markCampaignAsFailed",
      "outputs": [],
      "stateMutability": "nonpayable",
      "type": "function"
    },
    {
      "inputs": [],
      "name": "owner",
      "outputs": [
        {
          "internalType": "address",
          "name": "",
          "type": "address"
        }
      ],
      "stateMutability": "view",
      "type": "function"
    },
    {
      "inputs": [],
      "name": "platformFeePercentage",
      "outputs": [
        {
          "internalType": "uint256",
          "name": "",
          "type": "uint256"
        }
      ],
      "stateMutability": "view",
      "type": "function"
    },
    {
      "inputs": [],
      "name": "platformWallet",
      "outputs": [
        {
          "internalType": "address",
          "name": "",
          "type": "address"
        }
      ],
      "stateMutability": "view",
      "type": "function"
    },
    {
      "inputs": [
        {
          "internalType": "uint256",
          "name": "_campaignId",
          "type": "uint256"
        },
        {
          "internalType": "address[]",
          "name": "_backers",
          "type": "address[]"
        }
      ],
      "name": "processBulkRefunds",
      "outputs": [],
      "stateMutability": "nonpayable",
      "type": "function"
    },
    {
      "inputs": [
        {
          "internalType": "uint256",
          "name": "_campaignId",
          "type": "uint256"
        },
        {
          "internalType": "address",
          "name": "_backer",
          "type": "address"
        }
      ],
      "name": "processRefund",
      "outputs": [],
      "stateMutability": "nonpayable",
      "type": "function"
    },
    {
      "inputs": [],
      "name": "renounceOwnership",
      "outputs": [],
      "stateMutability": "nonpayable",
      "type": "function"
    },
    {
      "inputs": [
        {
          "internalType": "address",
          "name": "newOwner",
          "type": "address"
        }
      ],
      "name": "transferOwnership",
      "outputs": [],
      "stateMutability": "nonpayable",
      "type": "function"
    },
    {
      "inputs": [
        {
          "internalType": "uint256",
          "name": "_feePercentage",
          "type": "uint256"
        }
      ],
      "name": "updatePlatformFee",
      "outputs": [],
      "stateMutability": "nonpayable",
      "type": "function"
    },
    {
      "inputs": [
        {
          "internalType": "address",
          "name": "_newWallet",
          "type": "address"
        }
      ],
      "name": "updatePlatformWallet",
      "outputs": [],
      "stateMutability": "nonpayable",
      "type": "function"
    },
    {
      "inputs": [],
      "name": "usdtToken",
      "outputs": [
        {
          "internalType": "contract IERC20",
          "name": "",
          "type": "address"
        }
      ],
      "stateMutability": "view",
      "type": "function"
    }
  ],
  "bytecode": "0x608060405261012c6004553480156200001757600080fd5b5060405162002064380380620020648339810160408190526200003a91620000eb565b60016000556200004a336200007c565b600680546001600160a01b039384166001600160a01b0319918216179091556005805492909316911617905562000123565b600180546001600160a01b038381166001600160a01b0319831681179093556040519116919082907f8be0079c531659141344cd1fd0a4f28419497f9722a3daafe3b4186f6b6457e090600090a35050565b80516001600160a01b0381168114620000e657600080fd5b919050565b60008060408385031215620000ff57600080fd5b6200010a83620000ce565b91506200011a60208401620000ce565b90509250929050565b611f3180620001336000396000f3fe608060405234801561001057600080fd5b50600436106101425760003560e01c8063a98ad46c116100b8578063cd48cc991161007c578063cd48cc9914610294578063cdd78cfc146102a7578063db2e21bc146102b0578063e081dbf9146102b8578063f2fde38b146102cb578063fa2af9da146102de57600080fd5b8063a98ad46c14610230578063aa0b598814610243578063acea213114610256578063ada4ef301461025e578063b5b96ae01461027157600080fd5b8063715018a61161010a578063715018a6146101c15780637274e30d146101c95780638c590917146101d25780638da5cb5b146101e55780639b17fb9f1461020a578063a318f2691461021d57600080fd5b8063141961bc1461014757806321a8ea4f1461017b5780634b9e76a7146101915780635598f8cc146101a6578063598e83fb146101b9575b600080fd5b61015a610155366004611926565b6102f1565b6040516101729c9b9a99989796959493929190611985565b60405180910390f35b610183600281565b604051908152602001610172565b6101a461019f366004611a2a565b610473565b005b61015a6101b4366004611926565b61071d565b610183600381565b6101a461090b565b61018360035481565b6101a46101e0366004611a56565b61091f565b6001546001600160a01b03165b6040516001600160a01b039091168152602001610172565b6101a4610218366004611926565b610d09565b61018361022b366004611b2f565b610e9e565b6006546101f2906001600160a01b031681565b6101a4610251366004611926565b6110cc565b610183600181565b6101a461026c366004611ba3565b611123565b61028461027f366004611a2a565b61119c565b6040519015158152602001610172565b6101a46102a2366004611bbe565b6111fc565b61018360045481565b6101a46113dd565b6101836102c6366004611a2a565b611530565b6101a46102d9366004611ba3565b61158c565b6005546101f2906001600160a01b031681565b600260208190526000918252604090912080546001820154928201805491936001600160a01b0316929161032490611c77565b80601f016020809104026020016040519081016040528092919081815260200182805461035090611c77565b801561039d5780601f106103725761010080835404028352916020019161039d565b820191906000526020600020905b81548152906001019060200180831161038057829003601f168201915b5050505050908060030180546103b290611c77565b80601f01602080910402602001604051908101604052809291908181526020018280546103de90611c77565b801561042b5780601f106104005761010080835404028352916020019161042b565b820191906000526020600020905b81548152906001019060200180831161040e57829003601f168201915b50505060048401546005850154600686015460078701546008880154600990980154969793969295509093509160ff808216926101008304821692620100009004909116908c565b61047b611605565b60008211801561048d57506003548211155b6104b25760405162461bcd60e51b81526004016104a990611cb1565b60405180910390fd5b6000828152600260205260409020600881015462010000900460ff166105145760405162461bcd60e51b815260206004820152601760248201527610d85b5c185a59db881a185cc81b9bdd0819985a5b1959604a1b60448201526064016104a9565b6001600160a01b0382166000908152600a820160205260409020546105735760405162461bcd60e51b8152602060048201526015602482015274139bc818dbdb9d1c9a589d5d1a5bdb88199bdd5b99605a1b60448201526064016104a9565b6001600160a01b0382166000908152600b8201602052604090205460ff1615806105b657506001600160a01b0382166000908152600a8201602052604090205415155b6105f55760405162461bcd60e51b815260206004820152601060248201526f105b1c9958591e481c99599d5b99195960821b60448201526064016104a9565b6001600160a01b038281166000818152600a840160205260408082208054929055600654905163a9059cbb60e01b81526004810193909352602483018290529092169063a9059cbb906044016020604051808303816000875af1158015610660573d6000803e3d6000fd5b505050506040513d601f19601f820116820180604052508101906106849190611cde565b6106c95760405162461bcd60e51b81526020600482015260166024820152751499599d5b99081d1c985b9cd9995c8819985a5b195960521b60448201526064016104a9565b826001600160a01b0316847f79ff6a60b3e21b3630b207e2a7b0b50b69b197d3d7ca776108ed2afb8fbac8dc8360405161070591815260200190565b60405180910390a350506107196001600055565b5050565b60008060608060008060008060008060008060008d11801561074157506003548d11155b61075d5760405162461bcd60e51b81526004016104a990611cb1565b60008d8152600260208190526040909120805460018201546004830154600584015460068501546007860154600887015460098801549888018054989997986001600160a01b0390971697909660038b01969594939260ff80821693610100830482169362010000909304909116918a906107d790611c77565b80601f016020809104026020016040519081016040528092919081815260200182805461080390611c77565b80156108505780601f1061082557610100808354040283529160200191610850565b820191906000526020600020905b81548152906001019060200180831161083357829003601f168201915b5050505050995088805461086390611c77565b80601f016020809104026020016040519081016040528092919081815260200182805461088f90611c77565b80156108dc5780601f106108b1576101008083540402835291602001916108dc565b820191906000526020600020905b8154815290600101906020018083116108bf57829003601f168201915b505050505098509c509c509c509c509c509c509c509c509c509c509c509c505091939597999b5091939597999b565b61091361165e565b61091d60006116b8565b565b610927611605565b60008211801561093957506003548211155b6109555760405162461bcd60e51b81526004016104a990611cb1565b600081116109b85760405162461bcd60e51b815260206004820152602a60248201527f436f6e747269627574696f6e20616d6f756e74206d75737420626520677265616044820152690746572207468616e20360b41b60648201526084016104a9565b6000828152600260205260409020600881015460ff16610a135760405162461bcd60e51b815260206004820152601660248201527543616d706169676e206973206e6f742061637469766560501b60448201526064016104a9565b8060060154421015610a675760405162461bcd60e51b815260206004820152601860248201527f43616d706169676e20686173206e6f742073746172746564000000000000000060448201526064016104a9565b8060070154421115610ab05760405162461bcd60e51b815260206004820152601260248201527110d85b5c185a59db881a185cc8195b99195960721b60448201526064016104a9565b6008810154610100900460ff1615610b0a5760405162461bcd60e51b815260206004820152601a60248201527f43616d706169676e20697320616c72656164792066756e64656400000000000060448201526064016104a9565b600881015462010000900460ff1615610b5b5760405162461bcd60e51b815260206004820152601360248201527210d85b5c185a59db881a185cc819985a5b1959606a1b60448201526064016104a9565b6006546040516323b872dd60e01b8152336004820152306024820152604481018490526001600160a01b03909116906323b872dd906064016020604051808303816000875af1158015610bb2573d6000803e3d6000fd5b505050506040513d601f19601f82011682018060405250810190610bd69190611cde565b610c195760405162461bcd60e51b81526020600482015260146024820152731554d115081d1c985b9cd9995c8819985a5b195960621b60448201526064016104a9565b336000908152600b8201602052604090205460ff16610c64576009810154610c4290600161170a565b6009820155336000908152600b820160205260409020805460ff191660011790555b336000908152600a82016020526040902054610c80908361170a565b336000908152600a830160205260409020556005810154610ca1908361170a565b60058201819055604080518481526020810192909252339185917ff9b7589b7a8d939b9da5dae90770378fe5fd7802be5d66432e85bedbdbfbcb7a910160405180910390a38060040154816005015410610cfe57610cfe8361171d565b506107196001600055565b610d1161165e565b600081118015610d2357506003548111155b610d3f5760405162461bcd60e51b81526004016104a990611cb1565b6000818152600260205260409020600881015460ff16610d9a5760405162461bcd60e51b815260206004820152601660248201527543616d706169676e206973206e6f742061637469766560501b60448201526064016104a9565b80600701544211610ded5760405162461bcd60e51b815260206004820152601a60248201527f43616d706169676e20686173206e6f7420656e6465642079657400000000000060448201526064016104a9565b6008810154610100900460ff1615610e475760405162461bcd60e51b815260206004820152601a60248201527f43616d706169676e20697320616c72656164792066756e64656400000000000060448201526064016104a9565b60088101805462ff00ff191662010000179055600581015460405183917f4be87fb54d91b51a0a336b9041ba7d48961ce927b5e70c0c83d8d6938dca6c1591610e9291815260200190565b60405180910390a25050565b6000808311610efb5760405162461bcd60e51b815260206004820152602360248201527f46756e64696e6720676f616c206d75737420626520677265617465722074686160448201526206e20360ec1b60648201526084016104a9565b60008211610f4b5760405162461bcd60e51b815260206004820152601f60248201527f4475726174696f6e206d7573742062652067726561746572207468616e20300060448201526064016104a9565b6000855111610f945760405162461bcd60e51b81526020600482015260156024820152745469746c652063616e6e6f7420626520656d70747960581b60448201526064016104a9565b6000845111610fe55760405162461bcd60e51b815260206004820152601b60248201527f4465736372697074696f6e2063616e6e6f7420626520656d707479000000000060448201526064016104a9565b60038054906000610ff583611d16565b909155505060035460008181526002602081905260409091208281556001810180546001600160a01b031916331790559081016110328882611d7e565b50600381016110418782611d7e565b5060048101859055600060058201554260068201819055611062908561170a565b6007820181905560088201805462ffffff1916600117905560006009830155604051339184917f9a6f279818b6c3ecad22dd882c63460a80cee0df2841c888adb08588aff26c22916110ba918c918b91429190611e3e565b60405180910390a35095945050505050565b6110d461165e565b6103e881111561111e5760405162461bcd60e51b81526020600482015260156024820152744665652063616e6e6f74206578636565642031302560581b60448201526064016104a9565b600455565b61112b61165e565b6001600160a01b03811661117a5760405162461bcd60e51b8152602060048201526016602482015275496e76616c69642077616c6c6574206164647265737360501b60448201526064016104a9565b600580546001600160a01b0319166001600160a01b0392909216919091179055565b600080831180156111af57506003548311155b6111cb5760405162461bcd60e51b81526004016104a990611cb1565b5060008281526002602090815260408083206001600160a01b0385168452600b0190915290205460ff165b92915050565b61120461165e565b60008211801561121657506003548211155b6112325760405162461bcd60e51b81526004016104a990611cb1565b6000828152600260205260409020600881015462010000900460ff166112945760405162461bcd60e51b815260206004820152601760248201527610d85b5c185a59db881a185cc81b9bdd0819985a5b1959604a1b60448201526064016104a9565b60005b82518110156113d75760008382815181106112b4576112b4611e6d565b60200260200101519050600083600a016000836001600160a01b03166001600160a01b031681526020019081526020016000205411156113c4576001600160a01b038181166000818152600a860160205260408082208054929055600654905163a9059cbb60e01b81526004810193909352602483018290529092169063a9059cbb906044016020604051808303816000875af1158015611359573d6000803e3d6000fd5b505050506040513d601f19601f8201168201806040525081019061137d9190611cde565b50816001600160a01b0316867f79ff6a60b3e21b3630b207e2a7b0b50b69b197d3d7ca776108ed2afb8fbac8dc836040516113ba91815260200190565b60405180910390a3505b50806113cf81611d16565b915050611297565b50505050565b6113e561165e565b6006546040516370a0823160e01b81523060048201526000916001600160a01b0316906370a0823190602401602060405180830381865afa15801561142e573d6000803e3d6000fd5b505050506040513d601f19601f820116820180604052508101906114529190611e83565b90506000811161149c5760405162461bcd60e51b81526020600482015260156024820152744e6f20746f6b656e7320746f20776974686472617760581b60448201526064016104a9565b6006546001600160a01b031663a9059cbb6114bf6001546001600160a01b031690565b6040516001600160e01b031960e084901b1681526001600160a01b039091166004820152602481018490526044016020604051808303816000875af115801561150c573d6000803e3d6000fd5b505050506040513d601f19601f820116820180604052508101906107199190611cde565b6000808311801561154357506003548311155b61155f5760405162461bcd60e51b81526004016104a990611cb1565b5060008281526002602090815260408083206001600160a01b0385168452600a0190915290205492915050565b61159461165e565b6001600160a01b0381166115f95760405162461bcd60e51b815260206004820152602660248201527f4f776e61626c653a206e6577206f776e657220697320746865207a65726f206160448201526564647265737360d01b60648201526084016104a9565b611602816116b8565b50565b6002600054036116575760405162461bcd60e51b815260206004820152601f60248201527f5265656e7472616e637947756172643a207265656e7472616e742063616c6c0060448201526064016104a9565b6002600055565b6001546001600160a01b0316331461091d5760405162461bcd60e51b815260206004820181905260248201527f4f776e61626c653a2063616c6c6572206973206e6f7420746865206f776e657260448201526064016104a9565b600180546001600160a01b038381166001600160a01b0319831681179093556040519116919082907f8be0079c531659141344cd1fd0a4f28419497f9722a3daafe3b4186f6b6457e090600090a35050565b60006117168284611e9c565b9392505050565b600081815260026020526040812060088101805461ffff1916610100179055600454600582015491929161175e916127109161175891611902565b9061190e565b9050600061177982846005015461191a90919063ffffffff16565b905081156117fc5760065460055460405163a9059cbb60e01b81526001600160a01b0391821660048201526024810185905291169063a9059cbb906044016020604051808303816000875af11580156117d6573d6000803e3d6000fd5b505050506040513d601f19601f820116820180604052508101906117fa9190611cde565b505b600654600184015460405163a9059cbb60e01b81526001600160a01b0391821660048201526024810184905291169063a9059cbb906044016020604051808303816000875af1158015611853573d6000803e3d6000fd5b505050506040513d601f19601f820116820180604052508101906118779190611cde565b50837f318daf69d77e946364e804495b2184222324b99fddeb42ab5fd25a919f596e8c84600501546040516118ae91815260200190565b60405180910390a260018301546040518281526001600160a01b039091169085907ff440aec6b52895984d061d622e6edeba6210f7c3e059be920663140c084560d79060200160405180910390a350505050565b60006117168284611eaf565b60006117168284611ec6565b60006117168284611ee8565b60006020828403121561193857600080fd5b5035919050565b6000815180845260005b8181101561196557602081850181015186830182015201611949565b506000602082860101526020601f19601f83011685010191505092915050565b8c81526001600160a01b038c166020820152610180604082018190526000906119b08382018e61193f565b905082810360608401526119c4818d61193f565b608084019b909b52505060a081019790975260c087019590955260e08601939093529015156101008501521515610120840152151561014083015261016090910152949350505050565b80356001600160a01b0381168114611a2557600080fd5b919050565b60008060408385031215611a3d57600080fd5b82359150611a4d60208401611a0e565b90509250929050565b60008060408385031215611a6957600080fd5b50508035926020909101359150565b634e487b7160e01b600052604160045260246000fd5b604051601f8201601f1916810167ffffffffffffffff81118282101715611ab757611ab7611a78565b604052919050565b600082601f830112611ad057600080fd5b813567ffffffffffffffff811115611aea57611aea611a78565b611afd601f8201601f1916602001611a8e565b818152846020838601011115611b1257600080fd5b816020850160208301376000918101602001919091529392505050565b60008060008060808587031215611b4557600080fd5b843567ffffffffffffffff80821115611b5d57600080fd5b611b6988838901611abf565b95506020870135915080821115611b7f57600080fd5b50611b8c87828801611abf565b949794965050505060408301359260600135919050565b600060208284031215611bb557600080fd5b61171682611a0e565b60008060408385031215611bd157600080fd5b8235915060208084013567ffffffffffffffff80821115611bf157600080fd5b818601915086601f830112611c0557600080fd5b813581811115611c1757611c17611a78565b8060051b9150611c28848301611a8e565b8181529183018401918481019089841115611c4257600080fd5b938501935b83851015611c6757611c5885611a0e565b82529385019390850190611c47565b8096505050505050509250929050565b600181811c90821680611c8b57607f821691505b602082108103611cab57634e487b7160e01b600052602260045260246000fd5b50919050565b602080825260139082015272125b9d985b1a590818d85b5c185a59db881251606a1b604082015260600190565b600060208284031215611cf057600080fd5b8151801515811461171657600080fd5b634e487b7160e01b600052601160045260246000fd5b600060018201611d2857611d28611d00565b5060010190565b601f821115611d7957600081815260208120601f850160051c81016020861015611d565750805b601f850160051c820191505b81811015611d7557828155600101611d62565b5050505b505050565b815167ffffffffffffffff811115611d9857611d98611a78565b611dac81611da68454611c77565b84611d2f565b602080601f831160018114611de15760008415611dc95750858301515b600019600386901b1c1916600185901b178555611d75565b600085815260208120601f198616915b82811015611e1057888601518255948401946001909101908401611df1565b5085821015611e2e5787850151600019600388901b60f8161c191681555b5050505050600190811b01905550565b608081526000611e51608083018761193f565b6020830195909552506040810192909252606090910152919050565b634e487b7160e01b600052603260045260246000fd5b600060208284031215611e9557600080fd5b5051919050565b808201808211156111f6576111f6611d00565b80820281158282048414176111f6576111f6611d00565b600082611ee357634e487b7160e01b600052601260045260246000fd5b500490565b818103818111156111f6576111f6611d0056fea26469706673582212205e54bd963b9be81fcaeb9d9844b869ee609ba9a14d92f58a0dca3b17359e89fe64736f6c63430008130033",
  "linkReferences": {},
  "deployedLinkReferences": {}
}